{
  "contractName": "SupplyChain",
  "abi": [
    {
      "inputs": [],
      "payable": true,
      "stateMutability": "payable",
      "type": "constructor"
    },
    {
      "anonymous": false,
      "inputs": [
        {
          "indexed": false,
          "internalType": "uint256",
          "name": "uid",
          "type": "uint256"
        }
      ],
      "name": "Manufactured",
      "type": "event"
    },
    {
      "anonymous": false,
      "inputs": [
        {
          "indexed": true,
          "internalType": "address",
          "name": "_account",
          "type": "address"
        }
      ],
      "name": "ManufacturerAdded",
      "type": "event"
    },
    {
      "anonymous": false,
      "inputs": [
        {
          "indexed": false,
          "internalType": "uint256",
          "name": "uid",
          "type": "uint256"
        }
      ],
      "name": "PurchasedByCustomer",
      "type": "event"
    },
    {
      "anonymous": false,
      "inputs": [
        {
          "indexed": false,
          "internalType": "uint256",
          "name": "uid",
          "type": "uint256"
        }
      ],
      "name": "PurchasedByThirdParty",
      "type": "event"
    },
    {
      "anonymous": false,
      "inputs": [
        {
          "indexed": false,
          "internalType": "uint256",
          "name": "uid",
          "type": "uint256"
        }
      ],
      "name": "ReceivedByCustomer",
      "type": "event"
    },
    {
      "anonymous": false,
      "inputs": [
        {
          "indexed": false,
          "internalType": "uint256",
          "name": "uid",
          "type": "uint256"
        }
      ],
      "name": "ReceivedByDeliveryHub",
      "type": "event"
    },
    {
      "anonymous": false,
      "inputs": [
        {
          "indexed": false,
          "internalType": "uint256",
          "name": "uid",
          "type": "uint256"
        }
      ],
      "name": "ReceivedByThirdParty",
      "type": "event"
    },
    {
      "anonymous": false,
      "inputs": [
        {
          "indexed": false,
          "internalType": "uint256",
          "name": "uid",
          "type": "uint256"
        }
      ],
      "name": "ShippedByDeliveryHub",
      "type": "event"
    },
    {
      "anonymous": false,
      "inputs": [
        {
          "indexed": false,
          "internalType": "uint256",
          "name": "uid",
          "type": "uint256"
        }
      ],
      "name": "ShippedByManufacturer",
      "type": "event"
    },
    {
      "anonymous": false,
      "inputs": [
        {
          "indexed": false,
          "internalType": "uint256",
          "name": "uid",
          "type": "uint256"
        }
      ],
      "name": "ShippedByThirdParty",
      "type": "event"
    },
    {
      "constant": true,
      "inputs": [],
      "name": "uid",
      "outputs": [
        {
          "internalType": "uint256",
          "name": "",
          "type": "uint256"
        }
      ],
      "payable": false,
      "stateMutability": "view",
      "type": "function"
    },
    {
      "constant": true,
      "inputs": [
        {
          "internalType": "address",
          "name": "_account",
          "type": "address"
        }
      ],
      "name": "hasManufacturerRole",
      "outputs": [
        {
          "internalType": "bool",
          "name": "",
          "type": "bool"
        }
      ],
      "payable": false,
      "stateMutability": "view",
      "type": "function"
    },
    {
      "constant": false,
      "inputs": [
        {
          "internalType": "address",
          "name": "_account",
          "type": "address"
        }
      ],
      "name": "addManufacturerRole",
      "outputs": [],
      "payable": false,
      "stateMutability": "nonpayable",
      "type": "function"
    },
    {
      "constant": true,
      "inputs": [
        {
          "internalType": "address",
          "name": "_account",
          "type": "address"
        }
      ],
      "name": "hasThirdPartyRole",
      "outputs": [
        {
          "internalType": "bool",
          "name": "",
          "type": "bool"
        }
      ],
      "payable": false,
      "stateMutability": "view",
      "type": "function"
    },
    {
      "constant": false,
      "inputs": [
        {
          "internalType": "address",
          "name": "_account",
          "type": "address"
        }
      ],
      "name": "addThirdPartyRole",
      "outputs": [],
      "payable": false,
      "stateMutability": "nonpayable",
      "type": "function"
    },
    {
      "constant": true,
      "inputs": [
        {
          "internalType": "address",
          "name": "_account",
          "type": "address"
        }
      ],
      "name": "hasDeliveryHubRole",
      "outputs": [
        {
          "internalType": "bool",
          "name": "",
          "type": "bool"
        }
      ],
      "payable": false,
      "stateMutability": "view",
      "type": "function"
    },
    {
      "constant": false,
      "inputs": [
        {
          "internalType": "address",
          "name": "_account",
          "type": "address"
        }
      ],
      "name": "addDeliveryHubRole",
      "outputs": [],
      "payable": false,
      "stateMutability": "nonpayable",
      "type": "function"
    },
    {
      "constant": true,
      "inputs": [
        {
          "internalType": "address",
          "name": "_account",
          "type": "address"
        }
      ],
      "name": "hasCustomerRole",
      "outputs": [
        {
          "internalType": "bool",
          "name": "",
          "type": "bool"
        }
      ],
      "payable": false,
      "stateMutability": "view",
      "type": "function"
    },
    {
      "constant": false,
      "inputs": [
        {
          "internalType": "address",
          "name": "_account",
          "type": "address"
        }
      ],
      "name": "addCustomerRole",
      "outputs": [],
      "payable": false,
      "stateMutability": "nonpayable",
      "type": "function"
    },
    {
      "constant": false,
      "inputs": [
        {
          "internalType": "string",
          "name": "manufacturerName",
          "type": "string"
        },
        {
          "internalType": "string",
          "name": "manufacturerDetails",
          "type": "string"
        },
        {
          "internalType": "string",
          "name": "manufacturerLongitude",
          "type": "string"
        },
        {
          "internalType": "string",
          "name": "manufacturerLatitude",
          "type": "string"
        },
        {
          "internalType": "string",
          "name": "productName",
          "type": "string"
        },
        {
          "internalType": "uint256",
          "name": "productCode",
          "type": "uint256"
        },
        {
          "internalType": "uint256",
          "name": "productPrice",
          "type": "uint256"
        },
        {
          "internalType": "string",
          "name": "productCategory",
          "type": "string"
        }
      ],
      "name": "manufactureProduct",
      "outputs": [],
      "payable": false,
      "stateMutability": "nonpayable",
      "type": "function"
    },
    {
      "constant": false,
      "inputs": [
        {
          "internalType": "uint256",
          "name": "_uid",
          "type": "uint256"
        }
      ],
      "name": "purchaseByThirdParty",
      "outputs": [],
      "payable": false,
      "stateMutability": "nonpayable",
      "type": "function"
    },
    {
      "constant": false,
      "inputs": [
        {
          "internalType": "uint256",
          "name": "_uid",
          "type": "uint256"
        }
      ],
      "name": "shipToThirdParty",
      "outputs": [],
      "payable": false,
      "stateMutability": "nonpayable",
      "type": "function"
    },
    {
      "constant": false,
      "inputs": [
        {
          "internalType": "uint256",
          "name": "_uid",
          "type": "uint256"
        },
        {
          "internalType": "string",
          "name": "thirdPartyLongitude",
          "type": "string"
        },
        {
          "internalType": "string",
          "name": "thirdPartyLatitude",
          "type": "string"
        }
      ],
      "name": "receiveByThirdParty",
      "outputs": [],
      "payable": false,
      "stateMutability": "nonpayable",
      "type": "function"
    },
    {
      "constant": false,
      "inputs": [
        {
          "internalType": "uint256",
          "name": "_uid",
          "type": "uint256"
        }
      ],
      "name": "purchaseByCustomer",
      "outputs": [],
      "payable": false,
      "stateMutability": "nonpayable",
      "type": "function"
    },
    {
      "constant": false,
      "inputs": [
        {
          "internalType": "uint256",
          "name": "_uid",
          "type": "uint256"
        }
      ],
      "name": "shipByThirdParty",
      "outputs": [],
      "payable": false,
      "stateMutability": "nonpayable",
      "type": "function"
    },
    {
      "constant": false,
      "inputs": [
        {
          "internalType": "uint256",
          "name": "_uid",
          "type": "uint256"
        },
        {
          "internalType": "string",
          "name": "deliveryHubLongitude",
          "type": "string"
        },
        {
          "internalType": "string",
          "name": "deliveryHubLatitude",
          "type": "string"
        }
      ],
      "name": "receiveByDeliveryHub",
      "outputs": [],
      "payable": false,
      "stateMutability": "nonpayable",
      "type": "function"
    },
    {
      "constant": false,
      "inputs": [
        {
          "internalType": "uint256",
          "name": "_uid",
          "type": "uint256"
        }
      ],
      "name": "shipByDeliveryHub",
      "outputs": [],
      "payable": false,
      "stateMutability": "nonpayable",
      "type": "function"
    },
    {
      "constant": false,
      "inputs": [
        {
          "internalType": "uint256",
          "name": "_uid",
          "type": "uint256"
        }
      ],
      "name": "receiveByCustomer",
      "outputs": [],
      "payable": false,
      "stateMutability": "nonpayable",
      "type": "function"
    },
    {
      "constant": true,
      "inputs": [
        {
          "internalType": "uint256",
          "name": "_uid",
          "type": "uint256"
        },
        {
          "internalType": "string",
          "name": "_type",
          "type": "string"
        },
        {
          "internalType": "uint256",
          "name": "i",
          "type": "uint256"
        }
      ],
      "name": "fetchProductPart1",
      "outputs": [
        {
          "internalType": "uint256",
          "name": "",
          "type": "uint256"
        },
        {
          "internalType": "uint256",
          "name": "",
          "type": "uint256"
        },
        {
          "internalType": "address",
          "name": "",
          "type": "address"
        },
        {
          "internalType": "address",
          "name": "",
          "type": "address"
        },
        {
          "internalType": "string",
          "name": "",
          "type": "string"
        },
        {
          "internalType": "string",
          "name": "",
          "type": "string"
        },
        {
          "internalType": "string",
          "name": "",
          "type": "string"
        },
        {
          "internalType": "string",
          "name": "",
          "type": "string"
        }
      ],
      "payable": false,
      "stateMutability": "view",
      "type": "function"
    },
    {
      "constant": true,
      "inputs": [
        {
          "internalType": "uint256",
          "name": "_uid",
          "type": "uint256"
        },
        {
          "internalType": "string",
          "name": "_type",
          "type": "string"
        },
        {
          "internalType": "uint256",
          "name": "i",
          "type": "uint256"
        }
      ],
      "name": "fetchProductPart2",
      "outputs": [
        {
          "internalType": "uint256",
          "name": "",
          "type": "uint256"
        },
        {
          "internalType": "string",
          "name": "",
          "type": "string"
        },
        {
          "internalType": "uint256",
          "name": "",
          "type": "uint256"
        },
        {
          "internalType": "uint256",
          "name": "",
          "type": "uint256"
        },
        {
          "internalType": "string",
          "name": "",
          "type": "string"
        },
        {
          "internalType": "enum Structure.State",
          "name": "",
          "type": "uint8"
        },
        {
          "internalType": "address",
          "name": "",
          "type": "address"
        },
        {
          "internalType": "string",
          "name": "",
          "type": "string"
        }
      ],
      "payable": false,
      "stateMutability": "view",
      "type": "function"
    },
    {
      "constant": true,
      "inputs": [
        {
          "internalType": "uint256",
          "name": "_uid",
          "type": "uint256"
        },
        {
          "internalType": "string",
          "name": "_type",
          "type": "string"
        },
        {
          "internalType": "uint256",
          "name": "i",
          "type": "uint256"
        }
      ],
      "name": "fetchProductPart3",
      "outputs": [
        {
          "internalType": "string",
          "name": "",
          "type": "string"
        },
        {
          "internalType": "address",
          "name": "",
          "type": "address"
        },
        {
          "internalType": "string",
          "name": "",
          "type": "string"
        },
        {
          "internalType": "string",
          "name": "",
          "type": "string"
        },
        {
          "internalType": "address",
          "name": "",
          "type": "address"
        },
        {
          "internalType": "string",
          "name": "",
          "type": "string"
        }
      ],
      "payable": false,
      "stateMutability": "view",
      "type": "function"
    },
    {
      "constant": true,
      "inputs": [],
      "name": "fetchProductCount",
      "outputs": [
        {
          "internalType": "uint256",
          "name": "",
          "type": "uint256"
        }
      ],
      "payable": false,
      "stateMutability": "view",
      "type": "function"
    },
    {
      "constant": true,
      "inputs": [
        {
          "internalType": "uint256",
          "name": "_uid",
          "type": "uint256"
        }
      ],
      "name": "fetchProductHistoryLength",
      "outputs": [
        {
          "internalType": "uint256",
          "name": "",
          "type": "uint256"
        }
      ],
      "payable": false,
      "stateMutability": "view",
      "type": "function"
    },
    {
      "constant": true,
      "inputs": [
        {
          "internalType": "uint256",
          "name": "_uid",
          "type": "uint256"
        }
      ],
      "name": "fetchProductState",
      "outputs": [
        {
          "internalType": "enum Structure.State",
          "name": "",
          "type": "uint8"
        }
      ],
      "payable": false,
      "stateMutability": "view",
      "type": "function"
    },
    {
      "constant": false,
      "inputs": [
        {
          "internalType": "string",
          "name": "tran",
          "type": "string"
        }
      ],
      "name": "setTransactionHashOnManufacture",
      "outputs": [],
      "payable": false,
      "stateMutability": "nonpayable",
      "type": "function"
    },
    {
      "constant": false,
      "inputs": [
        {
          "internalType": "uint256",
          "name": "_uid",
          "type": "uint256"
        },
        {
          "internalType": "string",
          "name": "tran",
          "type": "string"
        }
      ],
      "name": "setTransactionHash",
      "outputs": [],
      "payable": false,
      "stateMutability": "nonpayable",
      "type": "function"
    }
  ],
  "bytecode": "0x6080604052600280546001600160a01b0319163317905560018080556000556150958061002d6000396000f3fe608060405234801561001057600080fd5b506004361061018d5760003560e01c8063786ea161116100de578063d44bebcc11610097578063ee707c1e11610071578063ee707c1e14611200578063f16791b31461121d578063f4121b6714611225578063f514ce361461124b5761018d565b8063d44bebcc146110f5578063e2f1fe141461111b578063e55128ea1461115c5761018d565b8063786ea16114610c285780638290f85914610cd35780638eee90ea14610cf957806398c9588914610e29578063b843bdee146110b2578063cd2885e0146110cf5761018d565b80635212e5101161014b5780636cf07e24116101255780636cf07e241461099d5780636f1fe8d7146109ba5780637217eb2e14610bee57806372df397e14610c0b5761018d565b80635212e510146106ba5780636000ada1146106e0578063658db497146107065761018d565b80623375b714610192578063024edf9a146104de5780630a036e25146105185780633334529e14610535578063405ba7ef14610665578063453dd4af14610694575b600080fd5b6104dc60048036036101008110156101a957600080fd5b810190602081018135600160201b8111156101c357600080fd5b8201836020820111156101d557600080fd5b803590602001918460018302840111600160201b831117156101f657600080fd5b91908080601f0160208091040260200160405190810160405280939291908181526020018383808284376000920191909152509295949360208101935035915050600160201b81111561024857600080fd5b82018360208201111561025a57600080fd5b803590602001918460018302840111600160201b8311171561027b57600080fd5b91908080601f0160208091040260200160405190810160405280939291908181526020018383808284376000920191909152509295949360208101935035915050600160201b8111156102cd57600080fd5b8201836020820111156102df57600080fd5b803590602001918460018302840111600160201b8311171561030057600080fd5b91908080601f0160208091040260200160405190810160405280939291908181526020018383808284376000920191909152509295949360208101935035915050600160201b81111561035257600080fd5b82018360208201111561036457600080fd5b803590602001918460018302840111600160201b8311171561038557600080fd5b91908080601f0160208091040260200160405190810160405280939291908181526020018383808284376000920191909152509295949360208101935035915050600160201b8111156103d757600080fd5b8201836020820111156103e957600080fd5b803590602001918460018302840111600160201b8311171561040a57600080fd5b91908080601f0160208091040260200160405190810160405280939291908181526020018383808284376000920191909152509295843595602086013595919450925060608101915060400135600160201b81111561046857600080fd5b82018360208201111561047a57600080fd5b803590602001918460018302840111600160201b8311171561049b57600080fd5b91908080601f016020809104026020016040519081016040528093929190818152602001838380828437600092019190915250929550611253945050505050565b005b610504600480360360208110156104f457600080fd5b50356001600160a01b031661182b565b604080519115158252519081900360200190f35b6104dc6004803603602081101561052e57600080fd5b503561189c565b6104dc6004803603606081101561054b57600080fd5b81359190810190604081016020820135600160201b81111561056c57600080fd5b82018360208201111561057e57600080fd5b803590602001918460018302840111600160201b8311171561059f57600080fd5b91908080601f0160208091040260200160405190810160405280939291908181526020018383808284376000920191909152509295949360208101935035915050600160201b8111156105f157600080fd5b82018360208201111561060357600080fd5b803590602001918460018302840111600160201b8311171561062457600080fd5b91908080601f016020809104026020016040519081016040528093929190818152602001838380828437600092019190915250929550611d0b945050505050565b6106826004803603602081101561067b57600080fd5b50356121db565b60408051918252519081900360200190f35b6104dc600480360360208110156106aa57600080fd5b50356001600160a01b03166121ed565b6104dc600480360360208110156106d057600080fd5b50356001600160a01b03166122a5565b610504600480360360208110156106f657600080fd5b50356001600160a01b0316612359565b6107b36004803603606081101561071c57600080fd5b81359190810190604081016020820135600160201b81111561073d57600080fd5b82018360208201111561074f57600080fd5b803590602001918460018302840111600160201b8311171561077057600080fd5b91908080601f01602080910402602001604051908101604052809392919081815260200183838082843760009201919091525092955050913592506123c3915050565b60405180898152602001888152602001876001600160a01b03166001600160a01b03168152602001866001600160a01b03166001600160a01b0316815260200180602001806020018060200180602001858103855289818151815260200191508051906020019080838360005b83811015610838578181015183820152602001610820565b50505050905090810190601f1680156108655780820380516001836020036101000a031916815260200191505b5085810384528851815288516020918201918a019080838360005b83811015610898578181015183820152602001610880565b50505050905090810190601f1680156108c55780820380516001836020036101000a031916815260200191505b50858103835287518152875160209182019189019080838360005b838110156108f85781810151838201526020016108e0565b50505050905090810190601f1680156109255780820380516001836020036101000a031916815260200191505b50858103825286518152865160209182019188019080838360005b83811015610958578181015183820152602001610940565b50505050905090810190601f1680156109855780820380516001836020036101000a031916815260200191505b509c5050505050505050505050505060405180910390f35b6104dc600480360360208110156109b357600080fd5b5035612794565b610a67600480360360608110156109d057600080fd5b81359190810190604081016020820135600160201b8111156109f157600080fd5b820183602082011115610a0357600080fd5b803590602001918460018302840111600160201b83111715610a2457600080fd5b91908080601f0160208091040260200160405190810160405280939291908181526020018383808284376000920191909152509295505091359250612c68915050565b604051808981526020018060200188815260200187815260200180602001866008811115610a9157fe5b60ff168152602001856001600160a01b03166001600160a01b031681526020018060200184810384528b818151815260200191508051906020019080838360005b83811015610aea578181015183820152602001610ad2565b50505050905090810190601f168015610b175780820380516001836020036101000a031916815260200191505b5084810383528851815288516020918201918a019080838360005b83811015610b4a578181015183820152602001610b32565b50505050905090810190601f168015610b775780820380516001836020036101000a031916815260200191505b50848103825285518152855160209182019187019080838360005b83811015610baa578181015183820152602001610b92565b50505050905090810190601f168015610bd75780820380516001836020036101000a031916815260200191505b509b50505050505050505050505060405180910390f35b6104dc60048036036020811015610c0457600080fd5b5035612f5e565b6104dc60048036036020811015610c2157600080fd5b5035613389565b6104dc60048036036040811015610c3e57600080fd5b81359190810190604081016020820135600160201b811115610c5f57600080fd5b820183602082011115610c7157600080fd5b803590602001918460018302840111600160201b83111715610c9257600080fd5b91908080601f016020809104026020016040519081016040528093929190818152602001838380828437600092019190915250929550613814945050505050565b6104dc60048036036020811015610ce957600080fd5b50356001600160a01b0316613860565b6104dc60048036036060811015610d0f57600080fd5b81359190810190604081016020820135600160201b811115610d3057600080fd5b820183602082011115610d4257600080fd5b803590602001918460018302840111600160201b83111715610d6357600080fd5b91908080601f0160208091040260200160405190810160405280939291908181526020018383808284376000920191909152509295949360208101935035915050600160201b811115610db557600080fd5b820183602082011115610dc757600080fd5b803590602001918460018302840111600160201b83111715610de857600080fd5b91908080601f016020809104026020016040519081016040528093929190818152602001838380828437600092019190915250929550613912945050505050565b610ed660048036036060811015610e3f57600080fd5b81359190810190604081016020820135600160201b811115610e6057600080fd5b820183602082011115610e7257600080fd5b803590602001918460018302840111600160201b83111715610e9357600080fd5b91908080601f0160208091040260200160405190810160405280939291908181526020018383808284376000920191909152509295505091359250613d8e915050565b6040518080602001876001600160a01b03166001600160a01b031681526020018060200180602001866001600160a01b03166001600160a01b031681526020018060200185810385528b818151815260200191508051906020019080838360005b83811015610f4f578181015183820152602001610f37565b50505050905090810190601f168015610f7c5780820380516001836020036101000a031916815260200191505b5085810384528951815289516020918201918b019080838360005b83811015610faf578181015183820152602001610f97565b50505050905090810190601f168015610fdc5780820380516001836020036101000a031916815260200191505b5085810383528851815288516020918201918a019080838360005b8381101561100f578181015183820152602001610ff7565b50505050905090810190601f16801561103c5780820380516001836020036101000a031916815260200191505b50858103825286518152865160209182019188019080838360005b8381101561106f578181015183820152602001611057565b50505050905090810190601f16801561109c5780820380516001836020036101000a031916815260200191505b509a505050505050505050505060405180910390f35b6104dc600480360360208110156110c857600080fd5b503561414b565b610504600480360360208110156110e557600080fd5b50356001600160a01b0316614574565b6105046004803603602081101561110b57600080fd5b50356001600160a01b03166145e3565b6111386004803603602081101561113157600080fd5b5035614653565b6040518082600881111561114857fe5b60ff16815260200191505060405180910390f35b6104dc6004803603602081101561117257600080fd5b810190602081018135600160201b81111561118c57600080fd5b82018360208201111561119e57600080fd5b803590602001918460018302840111600160201b831117156111bf57600080fd5b91908080601f016020809104026020016040519081016040528093929190818152602001838380828437600092019190915250929550614672945050505050565b6104dc6004803603602081101561121657600080fd5b50356146bf565b610682614b2c565b6104dc6004803603602081101561123b57600080fd5b50356001600160a01b0316614b33565b610682614be9565b61125c33612359565b6112975760405162461bcd60e51b8152600401808060200182810382526022815260200180614ea36022913960400191505060405180910390fd5b6000546112a2614c58565b600154602080830191909152828252608080830180519092018c9052815160409081018c905282516060018b9052825190910189905281514260a090910152339083018190529051526112f481614bef565b600060608201526113088187878787614c37565b60008281526003602090815260409182902083518155908301516001820155908201516002820180546001600160a01b0319166001600160a01b03909216919091178082556060840151849392909160ff60a01b1916600160a01b83600881111561136f57fe5b0217905550608082015180516003830180546001600160a01b0319166001600160a01b0390921691909117815560208083015180516113b49260048701920190614cc3565b50604082015180516113d0916002840191602090910190614cc3565b50606082015180516113ec916003840191602090910190614cc3565b5060808201518051611408916004840191602090910190614cc3565b5060a0918201516005919091015582015180516009830180546001600160a01b0319166001600160a01b03909216919091178155602080830151805161145492600a8701920190614cc3565b5060408201518051611470916002840191602090910190614cc3565b50505060c082015180518051600c84019161149091839160200190614cc3565b50602082810151600183015560408301516002830155606083015180516114bd9260038501920190614cc3565b50505060e082015180516010830180546001600160a01b0319166001600160a01b0390921691909117815560208083015180516115009260118701920190614cc3565b506040820151805161151c916002840191602090910190614cc3565b5050506101008201516013820180546001600160a01b0319166001600160a01b039092169190911790556101208201518051611562916014840191602090910190614cc3565b50505060008281526004602090815260408083208054600180820180845592865294849020865160159092020190815592850151938301939093558301516002820180546001600160a01b0319166001600160a01b03909216919091178082556060850151859392909160ff60a01b1916600160a01b8360088111156115e457fe5b0217905550608082015180516003830180546001600160a01b0319166001600160a01b0390921691909117815560208083015180516116299260048701920190614cc3565b5060408201518051611645916002840191602090910190614cc3565b5060608201518051611661916003840191602090910190614cc3565b506080820151805161167d916004840191602090910190614cc3565b5060a0918201516005919091015582015180516009830180546001600160a01b0319166001600160a01b0390921691909117815560208083015180516116c992600a8701920190614cc3565b50604082015180516116e5916002840191602090910190614cc3565b50505060c082015180518051600c84019161170591839160200190614cc3565b50602082810151600183015560408301516002830155606083015180516117329260038501920190614cc3565b50505060e082015180516010830180546001600160a01b0319166001600160a01b0390921691909117815560208083015180516117759260118701920190614cc3565b5060408201518051611791916002840191602090910190614cc3565b5050506101008201516013820180546001600160a01b0319166001600160a01b0390921691909117905561012082015180516117d7916014840191602090910190614cc3565b5050600180548101815560008054909101905550506040805183815290517fd29d8a68ca7c8c74be5579719d445aabfe230ed6e6a83aff475a663500eb76099181900360200190a150505050505050505050565b60006001600160a01b038216611876576040805162461bcd60e51b81526020600482015260176024820152600080516020614e62833981519152604482015290519081900360640190fd5b506001600160a01b03166000908152600560205260409020546301000000900460ff1690565b806001600082815260036020526040902060020154600160a01b900460ff1660088111156118c657fe5b146119025760405162461bcd60e51b815260040180806020018281038252602481526020018061503d6024913960400191505060405180910390fd5b600082815260036020819052604090912001546001600160a01b0316338114611968576040805162461bcd60e51b81526020600482015260136024820152722ab730baba3437b934bd32b21030b1ba34b7b760691b604482015290519081900360640190fd5b61197133612359565b6119ac5760405162461bcd60e51b8152600401808060200182810382526022815260200180614ea36022913960400191505060405180910390fd5b60008381526003602081815260408084206002808201805460ff60a01b19908116600160a11b17825560048652938720958552855460018181018089559789529590972083546015909802019687558483015494870194909455835490860180546001600160a01b0319166001600160a01b0390921691909117808255935494959194919360ff600160a01b9384900416939192911690836008811115611a4f57fe5b02179055506003828101805491830180546001600160a01b0319166001600160a01b0390931692909217825560048085018054929392611aa5928601919060026000196001831615610100020190911604614d41565b5060028281018054611aca928481019291600019610100600183161502011604614d41565b5060038201816003019080546001816001161561010002031660029004611af2929190614d41565b5060048201816004019080546001816001161561010002031660029004611b1a929190614d41565b506005918201549101556009828101805491830180546001600160a01b0319166001600160a01b03909316929092178255600a8085018054929392611b75928601919060026000196001831615610100020190911604614d41565b5060028281018054611b9a928481019291600019610100600183161502011604614d41565b505050600c82810180549091830190611bc9908290849060026000196101006001841615020190911604614d41565b50600182015481600101556002820154816002015560038201816003019080546001816001161561010002031660029004611c05929190614d41565b5050506010828101805491830180546001600160a01b0319166001600160a01b0390931692909217825560118085018054929392611c59928601919060026000196001831615610100020190911604614d41565b5060028281018054611c7e928481019291600019610100600183161502011604614d41565b50505060138281015490820180546001600160a01b0319166001600160a01b0390921691909117905560148083018054611cce928401919060026000196001831615610100020190911604614d41565b50506040805186815290517f25727bef8a186dd95a062151451f2d651551b53124c18208d7653b1217ae31ba9350908190036020019150a1505050565b826002600082815260036020526040902060020154600160a01b900460ff166008811115611d3557fe5b14611d715760405162461bcd60e51b8152600401808060200182810382526023815260200180614ff86023913960400191505060405180910390fd5b6000848152600360205260409020600901546001600160a01b0316338114611dd6576040805162461bcd60e51b81526020600482015260136024820152722ab730baba3437b934bd32b21030b1ba34b7b760691b604482015290519081900360640190fd5b611ddf33614574565b611e1a5760405162461bcd60e51b8152600401808060200182810382526021815260200180614e826021913960400191505060405180910390fd5b60008581526003602090815260409091206002810180546001600160a01b031916331790558551611e5392600a90920191870190614cc3565b5060008581526003602090815260409091208451611e7992600b90920191860190614cc3565b5060008581526003602081815260408084206002808201805460ff60a01b19908116600360a01b17825560048652938720958552855460018181018089559789529590972083546015909802019687558483015494870194909455835490860180546001600160a01b0319166001600160a01b0390921691909117808255935494959194919360ff600160a01b9384900416939192911690836008811115611f1d57fe5b02179055506003828101805491830180546001600160a01b0319166001600160a01b0390931692909217825560048085018054929392611f73928601919060026000196001831615610100020190911604614d41565b5060028281018054611f98928481019291600019610100600183161502011604614d41565b5060038201816003019080546001816001161561010002031660029004611fc0929190614d41565b5060048201816004019080546001816001161561010002031660029004611fe8929190614d41565b506005918201549101556009828101805491830180546001600160a01b0319166001600160a01b03909316929092178255600a8085018054929392612043928601919060026000196001831615610100020190911604614d41565b5060028281018054612068928481019291600019610100600183161502011604614d41565b505050600c82810180549091830190612097908290849060026000196101006001841615020190911604614d41565b506001820154816001015560028201548160020155600382018160030190805460018160011615610100020316600290046120d3929190614d41565b5050506010828101805491830180546001600160a01b0319166001600160a01b0390931692909217825560118085018054929392612127928601919060026000196001831615610100020190911604614d41565b506002828101805461214c928481019291600019610100600183161502011604614d41565b50505060138281015490820180546001600160a01b0319166001600160a01b039092169190911790556014808301805461219c928401919060026000196001831615610100020190911604614d41565b50506040805188815290517fa22971300ba7d9ca2113cf57c3238cde86a32cfba0c31a13ad86a23bde3facf29350908190036020019150a15050505050565b60009081526004602052604090205490565b6001600160a01b038116612236576040805162461bcd60e51b81526020600482015260176024820152600080516020614e62833981519152604482015290519081900360640190fd5b61223f816145e3565b1561227b5760405162461bcd60e51b8152600401808060200182810382526027815260200180614f3f6027913960400191505060405180910390fd5b6001600160a01b03166000908152600560205260409020805463ff00000019166301000000179055565b6001600160a01b0381166122ee576040805162461bcd60e51b81526020600482015260176024820152600080516020614e62833981519152604482015290519081900360640190fd5b6122f781614574565b156123335760405162461bcd60e51b815260040180806020018281038252602a815260200180614fce602a913960400191505060405180910390fd5b6001600160a01b03166000908152600560205260409020805461ff001916610100179055565b60006001600160a01b0382166123a4576040805162461bcd60e51b81526020600482015260176024820152600080516020614e62833981519152604482015290519081900360640190fd5b506001600160a01b031660009081526005602052604090205460ff1690565b600083815260036020526040812054819081908190606090819081908190612420576040805162461bcd60e51b815260206004820152600b60248201526a125b9d985b1a59081d5a5960aa1b604482015290519081900360640190fd5b60008b815260036020908152604091829020825180840190935260078352661c1c9bd91d58dd60ca1b928201929092528b51908c01207f36a4a183f82db747ab399ca476ab84cc3def6abe3ac63748d03b4584af38d057141561248d575060008b81526003602052604090205b604080518082019091526007815266686973746f727960c81b6020918201528b51908c01207f5cb4ee416d23b95cd5367c15d6b361ec02394b3d48d629418b0e5e7eda67585814156125045760008c815260046020526040902080548b9081106124f357fe5b906000526020600020906015020190505b8054600180830154600280850154600386015460048701805460408051602061010099841615999099026000190190921695909504601f810188900488028201880190955284815294956001600160a01b039384169593909216939092600589019260068a019260078b0192918691908301828280156125c55780601f1061259a576101008083540402835291602001916125c5565b820191906000526020600020905b8154815290600101906020018083116125a857829003601f168201915b5050865460408051602060026001851615610100026000190190941693909304601f8101849004840282018401909252818152959950889450925084019050828280156126535780601f1061262857610100808354040283529160200191612653565b820191906000526020600020905b81548152906001019060200180831161263657829003601f168201915b5050855460408051602060026001851615610100026000190190941693909304601f8101849004840282018401909252818152959850879450925084019050828280156126e15780601f106126b6576101008083540402835291602001916126e1565b820191906000526020600020905b8154815290600101906020018083116126c457829003601f168201915b5050845460408051602060026001851615610100026000190190941693909304601f81018490048402820184019092528181529597508694509250840190508282801561276f5780601f106127445761010080835404028352916020019161276f565b820191906000526020600020905b81548152906001019060200180831161275257829003601f168201915b5050505050905098509850985098509850985098509850509397509397509397509397565b806006600082815260036020526040902060020154600160a01b900460ff1660088111156127be57fe5b146127fa5760405162461bcd60e51b8152600401808060200182810382526024815260200180614f1b6024913960400191505060405180910390fd5b6000828152600360205260409020600201546001600160a01b031633811461285f576040805162461bcd60e51b81526020600482015260136024820152722ab730baba3437b934bd32b21030b1ba34b7b760691b604482015290519081900360640190fd5b6000838152600360205260409020601001546001600160a01b03163381146128c4576040805162461bcd60e51b81526020600482015260136024820152722ab730baba3437b934bd32b21030b1ba34b7b760691b604482015290519081900360640190fd5b6128cd336145e3565b6129085760405162461bcd60e51b815260040180806020018281038252602281526020018061501b6022913960400191505060405180910390fd5b60008481526003602081815260408084206002808201805460ff60a01b19908116600760a01b17825560048652938720958552855460018181018089559789529590972083546015909802019687558483015494870194909455835490860180546001600160a01b0319166001600160a01b0390921691909117808255935494959194919360ff600160a01b93849004169391929116908360088111156129ab57fe5b02179055506003828101805491830180546001600160a01b0319166001600160a01b0390931692909217825560048085018054929392612a01928601919060026000196001831615610100020190911604614d41565b5060028281018054612a26928481019291600019610100600183161502011604614d41565b5060038201816003019080546001816001161561010002031660029004612a4e929190614d41565b5060048201816004019080546001816001161561010002031660029004612a76929190614d41565b506005918201549101556009828101805491830180546001600160a01b0319166001600160a01b03909316929092178255600a8085018054929392612ad1928601919060026000196001831615610100020190911604614d41565b5060028281018054612af6928481019291600019610100600183161502011604614d41565b505050600c82810180549091830190612b25908290849060026000196101006001841615020190911604614d41565b50600182015481600101556002820154816002015560038201816003019080546001816001161561010002031660029004612b61929190614d41565b5050506010828101805491830180546001600160a01b0319166001600160a01b0390931692909217825560118085018054929392612bb5928601919060026000196001831615610100020190911604614d41565b5060028281018054612bda928481019291600019610100600183161502011604614d41565b50505060138281015490820180546001600160a01b0319166001600160a01b0390921691909117905560148083018054612c2a928401919060026000196001831615610100020190911604614d41565b50506040805187815290517f9a96442e96ac96ba57e48273f290bf3bb9c6b0b2c86843cc4bf2353119918fdf9350908190036020019150a150505050565b600083815260036020526040812054606090829081908390829081908390612cc5576040805162461bcd60e51b815260206004820152600b60248201526a125b9d985b1a59081d5a5960aa1b604482015290519081900360640190fd5b60008b815260036020908152604091829020825180840190935260078352661c1c9bd91d58dd60ca1b928201929092528b51908c01207f36a4a183f82db747ab399ca476ab84cc3def6abe3ac63748d03b4584af38d0571415612d32575060008b81526003602052604090205b604080518082019091526007815266686973746f727960c81b6020918201528b51908c01207f5cb4ee416d23b95cd5367c15d6b361ec02394b3d48d629418b0e5e7eda6758581415612da95760008c815260046020526040902080548b908110612d9857fe5b906000526020600020906015020190505b6008810154600d820154600e8301546002808501546009860154600c870180546040805160206101006001851615026000190190931696909604601f810183900483028701830190915280865291969594600f8a0194600160a01b900460ff16936001600160a01b031692600a8b0192899190830182828015612e6d5780601f10612e4257610100808354040283529160200191612e6d565b820191906000526020600020905b815481529060010190602001808311612e5057829003601f168201915b5050875460408051602060026001851615610100026000190190941693909304601f8101849004840282018401909252818152959c5089945092508401905082828015612efb5780601f10612ed057610100808354040283529160200191612efb565b820191906000526020600020905b815481529060010190602001808311612ede57829003601f168201915b5050845460408051602060026001851615610100026000190190941693909304601f81018490048402820184019092528181529599508694509250840190508282801561276f5780601f106127445761010080835404028352916020019161276f565b806003600082815260036020526040902060020154600160a01b900460ff166008811115612f8857fe5b14612fc45760405162461bcd60e51b8152600401808060200182810382526023815260200180614fab6023913960400191505060405180910390fd5b612fcd3361182b565b61301e576040805162461bcd60e51b815260206004820152601e60248201527f43616e2062652063616c6c656420627920637573746f6d6572206f6e6c790000604482015290519081900360640190fd5b60008281526003602081815260408084206013810180546001600160a01b031990811633179091556002808301805460ff60a01b19908116600160a21b1782556004875294882096865286546001818101808a55988a529690982084546015909902019788558584015495880195909555845490870180549092166001600160a01b0390911617808255935494959194919360ff600160a01b93849004169391929116908360088111156130ce57fe5b02179055506003828101805491830180546001600160a01b0319166001600160a01b0390931692909217825560048085018054929392613124928601919060026000196001831615610100020190911604614d41565b5060028281018054613149928481019291600019610100600183161502011604614d41565b5060038201816003019080546001816001161561010002031660029004613171929190614d41565b5060048201816004019080546001816001161561010002031660029004613199929190614d41565b506005918201549101556009828101805491830180546001600160a01b0319166001600160a01b03909316929092178255600a80850180549293926131f4928601919060026000196001831615610100020190911604614d41565b5060028281018054613219928481019291600019610100600183161502011604614d41565b505050600c82810180549091830190613248908290849060026000196101006001841615020190911604614d41565b50600182015481600101556002820154816002015560038201816003019080546001816001161561010002031660029004613284929190614d41565b5050506010828101805491830180546001600160a01b0319166001600160a01b03909316929092178255601180850180549293926132d8928601919060026000196001831615610100020190911604614d41565b50600282810180546132fd928481019291600019610100600183161502011604614d41565b50505060138281015490820180546001600160a01b0319166001600160a01b039092169190911790556014808301805461334d928401919060026000196001831615610100020190911604614d41565b50506040805185815290517ffd054e59d299873fab61a3c67d86d3a139b75dcd5cd82894d8983fc5e2669c829350908190036020019150a15050565b806007600082815260036020526040902060020154600160a01b900460ff1660088111156133b357fe5b146133ef5760405162461bcd60e51b8152600401808060200182810382526023815260200180614f886023913960400191505060405180910390fd5b6000828152600360205260409020601301546001600160a01b0316338114613454576040805162461bcd60e51b81526020600482015260136024820152722ab730baba3437b934bd32b21030b1ba34b7b760691b604482015290519081900360640190fd5b61345d3361182b565b6134ae576040805162461bcd60e51b815260206004820152601e60248201527f43616e2062652063616c6c656420627920637573746f6d6572206f6e6c790000604482015290519081900360640190fd5b6000838152600360208181526040808420600280820180546001600160a01b0319908116331760ff60a01b19908116600160a31b1783556004875294882096865286546001818101808a55988a529690982084546015909902019788558584015495880195909555805491870180549095166001600160a01b0390921691909117808555905494959194919360ff600160a01b938490041693909291169083600881111561355857fe5b02179055506003828101805491830180546001600160a01b0319166001600160a01b03909316929092178255600480850180549293926135ae928601919060026000196001831615610100020190911604614d41565b50600282810180546135d3928481019291600019610100600183161502011604614d41565b50600382018160030190805460018160011615610100020316600290046135fb929190614d41565b5060048201816004019080546001816001161561010002031660029004613623929190614d41565b506005918201549101556009828101805491830180546001600160a01b0319166001600160a01b03909316929092178255600a808501805492939261367e928601919060026000196001831615610100020190911604614d41565b50600282810180546136a3928481019291600019610100600183161502011604614d41565b505050600c828101805490918301906136d2908290849060026000196101006001841615020190911604614d41565b5060018201548160010155600282015481600201556003820181600301908054600181600116156101000203166002900461370e929190614d41565b5050506010828101805491830180546001600160a01b0319166001600160a01b0390931692909217825560118085018054929392613762928601919060026000196001831615610100020190911604614d41565b5060028281018054613787928481019291600019610100600183161502011604614d41565b50505060138281015490820180546001600160a01b0319166001600160a01b03909216919091179055601480830180546137d7928401919060026000196001831615610100020190911604614d41565b50506040805186815290517f8a746d5b91a9a334d1abbeee7d031aac6d5c59ea6e982ac06aef4346cce5749e9350908190036020019150a1505050565b60008281526004602052604081208054600019810190811061383257fe5b906000526020600020906015020190508181601401908051906020019061385a929190614cc3565b50505050565b6001600160a01b0381166138a9576040805162461bcd60e51b81526020600482015260176024820152600080516020614e62833981519152604482015290519081900360640190fd5b6138b281612359565b156138ee5760405162461bcd60e51b815260040180806020018281038252602b815260200180614ef0602b913960400191505060405180910390fd5b6001600160a01b03166000908152600560205260409020805460ff19166001179055565b826005600082815260036020526040902060020154600160a01b900460ff16600881111561393c57fe5b146139785760405162461bcd60e51b8152600401808060200182810382526022815260200180614f666022913960400191505060405180910390fd5b613981336145e3565b6139bc5760405162461bcd60e51b815260040180806020018281038252602281526020018061501b6022913960400191505060405180910390fd5b6000848152600360209081526040909120600281018054336001600160a01b0319918216811790925560108301805490911690911790558451613a0792601190920191860190614cc3565b5060008481526003602090815260409091208351613a2d92601290920191850190614cc3565b5060008481526003602081815260408084206002808201805460ff60a01b19908116600360a11b17825560048652938720958552855460018181018089559789529590972083546015909802019687558483015494870194909455835490860180546001600160a01b0319166001600160a01b0390921691909117808255935494959194919360ff600160a01b9384900416939192911690836008811115613ad157fe5b02179055506003828101805491830180546001600160a01b0319166001600160a01b0390931692909217825560048085018054929392613b27928601919060026000196001831615610100020190911604614d41565b5060028281018054613b4c928481019291600019610100600183161502011604614d41565b5060038201816003019080546001816001161561010002031660029004613b74929190614d41565b5060048201816004019080546001816001161561010002031660029004613b9c929190614d41565b506005918201549101556009828101805491830180546001600160a01b0319166001600160a01b03909316929092178255600a8085018054929392613bf7928601919060026000196001831615610100020190911604614d41565b5060028281018054613c1c928481019291600019610100600183161502011604614d41565b505050600c82810180549091830190613c4b908290849060026000196101006001841615020190911604614d41565b50600182015481600101556002820154816002015560038201816003019080546001816001161561010002031660029004613c87929190614d41565b5050506010828101805491830180546001600160a01b0319166001600160a01b0390931692909217825560118085018054929392613cdb928601919060026000196001831615610100020190911604614d41565b5060028281018054613d00928481019291600019610100600183161502011604614d41565b50505060138281015490820180546001600160a01b0319166001600160a01b0390921691909117905560148083018054613d50928401919060026000196001831615610100020190911604614d41565b50506040805187815290517fb6589947d486bf61c31a4e6d2e81d4d2c93e7832fdda27f2492009b4755c29ed9350908190036020019150a150505050565b600083815260036020526040812054606091908290819083908290613de8576040805162461bcd60e51b815260206004820152600b60248201526a125b9d985b1a59081d5a5960aa1b604482015290519081900360640190fd5b600089815260036020908152604091829020825180840190935260078352661c1c9bd91d58dd60ca1b928201929092528951908a01207f36a4a183f82db747ab399ca476ab84cc3def6abe3ac63748d03b4584af38d0571415613e55575060008981526003602052604090205b604080518082019091526007815266686973746f727960c81b6020918201528951908a01207f5cb4ee416d23b95cd5367c15d6b361ec02394b3d48d629418b0e5e7eda6758581415613ecc5760008a8152600460205260409020805489908110613ebb57fe5b906000526020600020906015020190505b60108101546013820154600b8301805460408051602060026101006001861615026000190190941693909304601f810184900484028201840190925281815292946001600160a01b03908116946011880194601289019492909116926014890192889190830182828015613f815780601f10613f5657610100808354040283529160200191613f81565b820191906000526020600020905b815481529060010190602001808311613f6457829003601f168201915b5050875460408051602060026001851615610100026000190190941693909304601f8101849004840282018401909252818152959b508994509250840190508282801561400f5780601f10613fe45761010080835404028352916020019161400f565b820191906000526020600020905b815481529060010190602001808311613ff257829003601f168201915b5050865460408051602060026001851615610100026000190190941693909304601f81018490048402820184019092528181529599508894509250840190508282801561409d5780601f106140725761010080835404028352916020019161409d565b820191906000526020600020905b81548152906001019060200180831161408057829003601f168201915b5050845460408051602060026001851615610100026000190190941693909304601f81018490048402820184019092528181529598508694509250840190508282801561412b5780601f106141005761010080835404028352916020019161412b565b820191906000526020600020905b81548152906001019060200180831161410e57829003601f168201915b505050505090509650965096509650965096505093975093979195509350565b8060008082815260036020526040902060020154600160a01b900460ff16600881111561417457fe5b146141c6576040805162461bcd60e51b815260206004820152601860248201527f50726f64756374206e6f74206d616e7566616374757265640000000000000000604482015290519081900360640190fd5b6141cf33614574565b61420a5760405162461bcd60e51b8152600401808060200182810382526021815260200180614e826021913960400191505060405180910390fd5b6000828152600360208181526040808420600981018054336001600160a01b03199182161790915560028083018054600160a01b60ff60a01b19918216811783556004885295892097875287546001818101808b55998b529790992085546015909a02019889558685015496890196909655805491880180546001600160a01b03909316929093169190911780835590549596929592949284900460ff1693919216908360088111156142b957fe5b02179055506003828101805491830180546001600160a01b0319166001600160a01b039093169290921782556004808501805492939261430f928601919060026000196001831615610100020190911604614d41565b5060028281018054614334928481019291600019610100600183161502011604614d41565b506003820181600301908054600181600116156101000203166002900461435c929190614d41565b5060048201816004019080546001816001161561010002031660029004614384929190614d41565b506005918201549101556009828101805491830180546001600160a01b0319166001600160a01b03909316929092178255600a80850180549293926143df928601919060026000196001831615610100020190911604614d41565b5060028281018054614404928481019291600019610100600183161502011604614d41565b505050600c82810180549091830190614433908290849060026000196101006001841615020190911604614d41565b5060018201548160010155600282015481600201556003820181600301908054600181600116156101000203166002900461446f929190614d41565b5050506010828101805491830180546001600160a01b0319166001600160a01b03909316929092178255601180850180549293926144c3928601919060026000196001831615610100020190911604614d41565b50600282810180546144e8928481019291600019610100600183161502011604614d41565b50505060138281015490820180546001600160a01b0319166001600160a01b0390921691909117905560148083018054614538928401919060026000196001831615610100020190911604614d41565b50506040805185815290517f112c8adc962c1de46b0ae9499cd428dc90feb4c13a4df0c69d7e5e27ab34ae879350908190036020019150a15050565b60006001600160a01b0382166145bf576040805162461bcd60e51b81526020600482015260176024820152600080516020614e62833981519152604482015290519081900360640190fd5b506001600160a01b0316600090815260056020526040902054610100900460ff1690565b60006001600160a01b03821661462e576040805162461bcd60e51b81526020600482015260176024820152600080516020614e62833981519152604482015290519081900360640190fd5b506001600160a01b031660009081526005602052604090205462010000900460ff1690565b600090815260036020526040902060020154600160a01b900460ff1690565b6000805460001990810182526004602052604090912080548392810190811061469757fe5b906000526020600020906015020160140190805190602001906146bb929190614cc3565b5050565b6000818152600360205260409020600201546001600160a01b0316338114614724576040805162461bcd60e51b81526020600482015260136024820152722ab730baba3437b934bd32b21030b1ba34b7b760691b604482015290519081900360640190fd5b6000828152600360205260409020600901546001600160a01b0316338114614789576040805162461bcd60e51b81526020600482015260136024820152722ab730baba3437b934bd32b21030b1ba34b7b760691b604482015290519081900360640190fd5b61479233614574565b6147cd5760405162461bcd60e51b8152600401808060200182810382526021815260200180614e826021913960400191505060405180910390fd5b60008381526003602081815260408084206002808201805460ff60a01b19908116600560a01b17825560048652938720958552855460018181018089559789529590972083546015909802019687558483015494870194909455835490860180546001600160a01b0319166001600160a01b0390921691909117808255935494959194919360ff600160a01b938490041693919291169083600881111561487057fe5b02179055506003828101805491830180546001600160a01b0319166001600160a01b03909316929092178255600480850180549293926148c6928601919060026000196001831615610100020190911604614d41565b50600282810180546148eb928481019291600019610100600183161502011604614d41565b5060038201816003019080546001816001161561010002031660029004614913929190614d41565b506004820181600401908054600181600116156101000203166002900461493b929190614d41565b506005918201549101556009828101805491830180546001600160a01b0319166001600160a01b03909316929092178255600a8085018054929392614996928601919060026000196001831615610100020190911604614d41565b50600282810180546149bb928481019291600019610100600183161502011604614d41565b505050600c828101805490918301906149ea908290849060026000196101006001841615020190911604614d41565b50600182015481600101556002820154816002015560038201816003019080546001816001161561010002031660029004614a26929190614d41565b5050506010828101805491830180546001600160a01b0319166001600160a01b0390931692909217825560118085018054929392614a7a928601919060026000196001831615610100020190911604614d41565b5060028281018054614a9f928481019291600019610100600183161502011604614d41565b50505060138281015490820180546001600160a01b0319166001600160a01b0390921691909117905560148083018054614aef928401919060026000196001831615610100020190911604614d41565b50506040805186815290517ff2452d569e5bc407d222a6bcad7d4bb8bac5fae64ce52fa183bd77e34e0cc1479350908190036020019150a1505050565b6000545b90565b6001600160a01b038116614b7c576040805162461bcd60e51b81526020600482015260176024820152600080516020614e62833981519152604482015290519081900360640190fd5b614b85816145e3565b15614bc15760405162461bcd60e51b815260040180806020018281038252602b815260200180614ec5602b913960400191505060405180910390fd5b6001600160a01b03166000908152600560205260409020805462ff0000191662010000179055565b60005481565b60a0810180516000908190528151606060209182018190529251604090810184905260e085018051849052805190920184905290510182905261010083015261012090910152565b60c09094018051939093528251602001919091528151604001525160600152565b60408051610140810182526000808252602082018190529181018290529060608201908152602001614c88614db6565b8152602001614c95614df5565b8152602001614ca2614e1f565b8152602001614caf614df5565b815260006020820152606060409091015290565b828054600181600116156101000203166002900490600052602060002090601f016020900481019282601f10614d0457805160ff1916838001178555614d31565b82800160010185558215614d31579182015b82811115614d31578251825591602001919060010190614d16565b50614d3d929150614e47565b5090565b828054600181600116156101000203166002900490600052602060002090601f016020900481019282601f10614d7a5780548555614d31565b82800160010185558215614d3157600052602060002091601f016020900482015b82811115614d31578254825591600101919060010190614d9b565b6040518060c0016040528060006001600160a01b0316815260200160608152602001606081526020016060815260200160608152602001600081525090565b604051806060016040528060006001600160a01b0316815260200160608152602001606081525090565b6040518060800160405280606081526020016000815260200160008152602001606081525090565b614b3091905b80821115614d3d5760008155600101614e4d56fe496e76616c6964206163636f756e74206164647265737300000000000000000043616e2062652063616c6c6564206279207468697264207061727479206f6e6c7943616e2062652063616c6c6564206279206d616e756661637475726572206f6e6c79537065636966696564206163636f756e7420697320616c726561647920612064656c697665727920687562537065636966696564206163636f756e7420697320616c72656164792061206d616e75666163747572657250726f64756374206e6f742072656365697665642062792064656c697665727920687562537065636966696564206163636f756e7420697320616c7265616479206120637573746f6d657250726f64756374206e6f74207368697070656420627920746869726420706172747950726f64756374206e6f7420736869707065642062792064656c69766572792068756250726f64756374206e6f74207265636569766564206279207468697264207061727479537065636966696564206163636f756e7420697320616c7265616479206120746869726420706172747950726f64756374206e6f742073686970706564206279206d616e75666163747572657243616e2062652063616c6c65642062792064656c697665727920687562206f6e6c7950726f64756374206e6f7420707572636861736564206279207468697264207061727479a265627a7a723158200882828a2d8ce1cca7c22d1768f2c53560ddd71eb5a25c6184e21fa4f010c6a764736f6c63430005100032",
  "source": "// SPDX-License-Identifier: MIT\npragma solidity >=0.4.21 <0.9.0;\n\nimport \"./Structure.sol\";\n\ncontract SupplyChain {\n    event ManufacturerAdded(address indexed _account);\n\n    //product code\n    uint256 public uid;\n    uint256 sku;\n\n    address owner;\n\n    mapping(uint256 => Structure.Product) products;\n    mapping(uint256 => Structure.ProductHistory) productHistory;\n    mapping(address => Structure.Roles) roles;\n\n    function hasManufacturerRole(address _account) public view returns (bool) {\n        require(_account != address(0), \"Invalid account address\");\n        return roles[_account].Manufacturer;\n    }\n\n    function addManufacturerRole(address _account) public {\n        require(_account != address(0), \"Invalid account address\");\n        require(!hasManufacturerRole(_account), \"Specified account is already a manufacturer\");\n\n        roles[_account].Manufacturer = true;\n    }\n\n    function hasThirdPartyRole(address _account) public view returns (bool) {\n        require(_account != address(0), \"Invalid account address\");\n        return roles[_account].ThirdParty;\n    }\n\n    function addThirdPartyRole(address _account) public {\n        require(_account != address(0), \"Invalid account address\");\n        require(!hasThirdPartyRole(_account), \"Specified account is already a third party\");\n\n        roles[_account].ThirdParty = true;\n    }\n\n    function hasDeliveryHubRole(address _account) public view returns (bool) {\n        require(_account != address(0), \"Invalid account address\");\n        return roles[_account].DeliveryHub;\n    }\n\n    function addDeliveryHubRole(address _account) public {\n        require(_account != address(0), \"Invalid account address\");\n        require(!hasDeliveryHubRole(_account), \"Specified account is already a delivery hub\");\n\n        roles[_account].DeliveryHub = true;\n    }\n\n    function hasCustomerRole(address _account) public view returns (bool) {\n        require(_account != address(0), \"Invalid account address\");\n        return roles[_account].Customer;\n    }\n\n    function addCustomerRole(address _account) public {\n        require(_account != address(0), \"Invalid account address\");\n        require(!hasDeliveryHubRole(_account), \"Specified account is already a customer\");\n\n        roles[_account].Customer = true;\n    }\n\n    constructor() public payable {\n        owner = msg.sender;\n        sku = 1;\n        uid = 1;\n    }\n\n    event Manufactured(uint256 uid);\n    event PurchasedByThirdParty(uint256 uid);\n    event ShippedByManufacturer(uint256 uid);\n    event ReceivedByThirdParty(uint256 uid);\n    event PurchasedByCustomer(uint256 uid);\n    event ShippedByThirdParty(uint256 uid);\n    event ReceivedByDeliveryHub(uint256 uid);\n    event ShippedByDeliveryHub(uint256 uid);\n    event ReceivedByCustomer(uint256 uid);\n\n    modifier verifyAddress(address add) {\n        require(msg.sender == add, \"Unauthorized action\");\n        _;\n    }\n\n    modifier manufactured(uint256 _uid) {\n        require(\n            products[_uid].productState == Structure.State.Manufactured, \n            \"Product not manufactured\"\n        );\n        _;\n    }\n\n    modifier purchasedByThirdParty(uint256 _uid) {\n        require(\n            products[_uid].productState == Structure.State.PurchasedByThirdParty,\n            \"Product not purchased by third party\"\n        );\n        _;\n    }\n\n    modifier shippedByManufacturer(uint256 _uid) {\n        require(\n            products[_uid].productState == Structure.State.ShippedByManufacturer,\n            \"Product not shipped by manufacturer\"\n        );\n        _;\n    }\n\n    modifier receivedByThirdParty(uint256 _uid) {\n        require(\n            products[_uid].productState == Structure.State.ReceivedByThirdParty,\n            \"Product not received by third party\"\n        );\n        _;\n    }\n\n    modifier purchasedByCustomer(uint256 _uid) {\n        require(\n            products[_uid].productState == Structure.State.PurchasedByCustomer,\n            \"Product not purchased by customer\"\n        );\n        _;\n    }\n\n    modifier shippedByThirdParty(uint256 _uid) {\n        require(\n            products[_uid].productState == Structure.State.ShippedByThirdParty,\n            \"Product not shipped by third party\"\n        );\n        _;\n    }\n\n    modifier receivedByDeliveryHub(uint256 _uid) {\n        require(\n            products[_uid].productState == Structure.State.ReceivedByDeliveryHub,\n            \"Product not received by delivery hub\"\n        );\n        _;\n    }\n\n    modifier shippedByDeliveryHub(uint256 _uid) {\n        require(\n            products[_uid].productState == Structure.State.ShippedByDeliveryHub,\n            \"Product not shipped by delivery hub\"\n        );\n        _;\n    }\n\n    modifier receivedByCustomer(uint256 _uid) {\n        require(\n            products[_uid].productState == Structure.State.ReceivedByCustomer,\n            \"Product not received by customer\"\n        );\n        _;\n    }\n\n    function manufactureEmptyInitialize(Structure.Product memory product)\n        internal\n        pure\n    {\n        address thirdParty;\n        string memory transaction;\n        string memory thirdPartyLongitude;\n        string memory thirdPartyLatitude;\n\n        address deliveryHub;\n        string memory deliveryHubLongitude;\n        string memory deliveryHubLatitude;\n        address customer;\n\n        product.thirdparty.thirdParty = thirdParty;\n        product.thirdparty.thirdPartyLongitude = thirdPartyLongitude;\n        product.thirdparty.thirdPartyLatitude = thirdPartyLatitude;\n\n        product.deliveryhub.deliveryHub = deliveryHub;\n        product.deliveryhub.deliveryHubLongitude = deliveryHubLongitude;\n        product.deliveryhub.deliveryHubLatitude = deliveryHubLatitude;\n\n        product.customer = customer;\n        product.transaction = transaction;\n    }\n\n    function manufactureProductInitialize(\n        Structure.Product memory product,\n        string memory productName,\n        uint256 productCode,\n        uint256 productPrice,\n        string memory productCategory\n    ) internal pure {\n        product.productdet.productName = productName;\n        product.productdet.productCode = productCode;\n        product.productdet.productPrice = productPrice;\n        product.productdet.productCategory = productCategory;\n    }\n\n    ///@dev STEP 1 : Manufactured a product.\n    function manufactureProduct(\n        string memory manufacturerName,\n        string memory manufacturerDetails,\n        string memory manufacturerLongitude,\n        string memory manufacturerLatitude,\n        string memory productName,\n        uint256 productCode,\n        uint256 productPrice,\n        string memory productCategory\n    ) public {\n        require(hasManufacturerRole(msg.sender), \"Can be called by manufacturer only\");\n        uint256 _uid = uid;\n        Structure.Product memory product;\n        product.sku = sku;\n        product.uid = _uid;\n        product.manufacturer.manufacturerName = manufacturerName;\n        product.manufacturer.manufacturerDetails = manufacturerDetails;\n        product.manufacturer.manufacturerLongitude = manufacturerLongitude;\n        product.manufacturer.manufacturerLatitude = manufacturerLatitude;\n        product.manufacturer.manufacturedDate = block.timestamp;\n\n        product.owner = msg.sender;\n        product.manufacturer.manufacturer = msg.sender;\n\n        manufactureEmptyInitialize(product);\n\n        product.productState = Structure.State.Manufactured;\n\n        manufactureProductInitialize(\n            product,\n            productName,\n            productCode,\n            productPrice,\n            productCategory\n        );\n\n        products[_uid] = product;\n\n        productHistory[_uid].history.push(product);\n\n        sku++;\n        uid++;\n\n        emit Manufactured(_uid);\n    }\n\n    ///@dev STEP 2 : Purchase of manufactured product by Third Party.\n    function purchaseByThirdParty(uint256 _uid) public manufactured(_uid) {\n        require(hasThirdPartyRole(msg.sender), \"Can be called by third party only\");\n        products[_uid].thirdparty.thirdParty = msg.sender;\n        products[_uid].productState = Structure.State.PurchasedByThirdParty;\n        productHistory[_uid].history.push(products[_uid]);\n\n        emit PurchasedByThirdParty(_uid);\n    }\n\n    ///@dev STEP 3 : Shipping of purchased product to Third Party.\n    function shipToThirdParty(uint256 _uid)\n        public\n        purchasedByThirdParty(_uid)\n        verifyAddress(products[_uid].manufacturer.manufacturer)\n    {\n        require(hasManufacturerRole(msg.sender), \"Can be called by manufacturer only\");\n        products[_uid].productState = Structure.State.ShippedByManufacturer;\n        productHistory[_uid].history.push(products[_uid]);\n\n        emit ShippedByManufacturer(_uid);\n    }\n\n    ///@dev STEP 4 : Received the purchased product shipped by Manufacturer.\n    function receiveByThirdParty(\n        uint256 _uid,\n        string memory thirdPartyLongitude,\n        string memory thirdPartyLatitude\n    )\n        public\n        shippedByManufacturer(_uid)\n        verifyAddress(products[_uid].thirdparty.thirdParty)\n    {\n        require(hasThirdPartyRole(msg.sender), \"Can be called by third party only\");\n        products[_uid].owner = msg.sender;\n        products[_uid].thirdparty.thirdPartyLongitude = thirdPartyLongitude;\n        products[_uid].thirdparty.thirdPartyLatitude = thirdPartyLatitude;\n        products[_uid].productState = Structure.State.ReceivedByThirdParty;\n        productHistory[_uid].history.push(products[_uid]);\n\n        emit ReceivedByThirdParty(_uid);\n    }\n\n    ///@dev STEP 5 : Purchase of a product at third party by Customer.\n    function purchaseByCustomer(uint256 _uid)\n        public\n        receivedByThirdParty(_uid)\n    {\n        require(hasCustomerRole(msg.sender), \"Can be called by customer only\");\n        products[_uid].customer = msg.sender;\n        products[_uid].productState = Structure.State.PurchasedByCustomer;\n        productHistory[_uid].history.push(products[_uid]);\n\n        emit PurchasedByCustomer(_uid);\n    }\n\n    ///@dev STEP 7 : Shipping of product by third party purchased by customer.\n    function shipByThirdParty(uint256 _uid)\n        public\n        verifyAddress(products[_uid].owner)\n        verifyAddress(products[_uid].thirdparty.thirdParty)\n    {\n        require(hasThirdPartyRole(msg.sender), \"Can be called by third party only\");\n        products[_uid].productState = Structure.State.ShippedByThirdParty;\n        productHistory[_uid].history.push(products[_uid]);\n\n        emit ShippedByThirdParty(_uid);\n    }\n\n    ///@dev STEP 8 : Receiveing of product by delivery hub purchased by customer.\n    function receiveByDeliveryHub(\n        uint256 _uid,\n        string memory deliveryHubLongitude,\n        string memory deliveryHubLatitude\n    ) public shippedByThirdParty(_uid) {\n        require(hasDeliveryHubRole(msg.sender), \"Can be called by delivery hub only\");\n        products[_uid].owner = msg.sender;\n        products[_uid].deliveryhub.deliveryHub = msg.sender;\n        products[_uid].deliveryhub.deliveryHubLongitude = deliveryHubLongitude;\n        products[_uid].deliveryhub.deliveryHubLatitude = deliveryHubLatitude;\n        products[_uid].productState = Structure.State.ReceivedByDeliveryHub;\n        productHistory[_uid].history.push(products[_uid]);\n\n        emit ReceivedByDeliveryHub(_uid);\n    }\n\n    ///@dev STEP 9 : Shipping of product by delivery hub purchased by customer.\n    function shipByDeliveryHub(uint256 _uid)\n        public\n        receivedByDeliveryHub(_uid)\n        verifyAddress(products[_uid].owner)\n        verifyAddress(products[_uid].deliveryhub.deliveryHub)\n    {\n        require(hasDeliveryHubRole(msg.sender), \"Can be called by delivery hub only\");\n        products[_uid].productState = Structure.State.ShippedByDeliveryHub;\n        productHistory[_uid].history.push(products[_uid]);\n\n        emit ShippedByDeliveryHub(_uid);\n    }\n\n    ///@dev STEP 10 : Shipping of product by delivery hub purchased by customer.\n    function receiveByCustomer(uint256 _uid)\n        public\n        shippedByDeliveryHub(_uid)\n        verifyAddress(products[_uid].customer)\n    {\n        require(hasCustomerRole(msg.sender), \"Can be called by customer only\");\n        products[_uid].owner = msg.sender;\n        products[_uid].productState = Structure.State.ReceivedByCustomer;\n        productHistory[_uid].history.push(products[_uid]);\n\n        emit ReceivedByCustomer(_uid);\n    }\n\n    ///@dev Fetch product\n    function fetchProductPart1(\n        uint256 _uid,\n        string memory _type,\n        uint256 i\n    )\n        public\n        view\n        returns (\n            uint256,\n            uint256,\n            address,\n            address,\n            string memory,\n            string memory,\n            string memory,\n            string memory\n        )\n    {\n        require(products[_uid].uid != 0, \"Invalid uid\");\n        Structure.Product storage product = products[_uid];\n        if (keccak256(bytes(_type)) == keccak256(bytes(\"product\"))) {\n            product = products[_uid];\n        }\n        if (keccak256(bytes(_type)) == keccak256(bytes(\"history\"))) {\n            product = productHistory[_uid].history[i];\n        }\n        return (\n            product.uid,\n            product.sku,\n            product.owner,\n            product.manufacturer.manufacturer,\n            product.manufacturer.manufacturerName,\n            product.manufacturer.manufacturerDetails,\n            product.manufacturer.manufacturerLongitude,\n            product.manufacturer.manufacturerLatitude\n        );\n    }\n\n    ///@dev Fetch product\n    function fetchProductPart2(\n        uint256 _uid,\n        string memory _type,\n        uint256 i\n    )\n        public\n        view\n        returns (\n            uint256,\n            string memory,\n            uint256,\n            uint256,\n            string memory,\n            Structure.State,\n            address,\n            string memory\n        )\n    {\n        require(products[_uid].uid != 0, \"Invalid uid\");\n        Structure.Product storage product = products[_uid];\n        if (keccak256(bytes(_type)) == keccak256(bytes(\"product\"))) {\n            product = products[_uid];\n        }\n        if (keccak256(bytes(_type)) == keccak256(bytes(\"history\"))) {\n            product = productHistory[_uid].history[i];\n        }\n        return (\n            product.manufacturer.manufacturedDate,\n            product.productdet.productName,\n            product.productdet.productCode,\n            product.productdet.productPrice,\n            product.productdet.productCategory,\n            product.productState,\n            product.thirdparty.thirdParty,\n            product.thirdparty.thirdPartyLongitude\n        );\n    }\n\n    function fetchProductPart3(\n        uint256 _uid,\n        string memory _type,\n        uint256 i\n    )\n        public\n        view\n        returns (\n            string memory,\n            address,\n            string memory,\n            string memory,\n            address,\n            string memory\n        )\n    {\n        require(products[_uid].uid != 0, \"Invalid uid\");\n        Structure.Product storage product = products[_uid];\n        if (keccak256(bytes(_type)) == keccak256(bytes(\"product\"))) {\n            product = products[_uid];\n        }\n        if (keccak256(bytes(_type)) == keccak256(bytes(\"history\"))) {\n            product = productHistory[_uid].history[i];\n        }\n        return (\n            product.thirdparty.thirdPartyLatitude,\n            product.deliveryhub.deliveryHub,\n            product.deliveryhub.deliveryHubLongitude,\n            product.deliveryhub.deliveryHubLatitude,\n            product.customer,\n            product.transaction\n        );\n    }\n\n    function fetchProductCount() public view returns (uint256) {\n        return uid;\n    }\n\n    function fetchProductHistoryLength(uint256 _uid)\n        public\n        view\n        returns (uint256)\n    {\n        return productHistory[_uid].history.length;\n    }\n\n    function fetchProductState(uint256 _uid)\n        public\n        view\n        returns (Structure.State)\n    {\n        return products[_uid].productState;\n    }\n\n    function setTransactionHashOnManufacture(string memory tran) public {\n        productHistory[uid - 1].history[\n            productHistory[uid - 1].history.length - 1\n        ]\n            .transaction = tran;\n    }\n\n    function setTransactionHash(uint256 _uid, string memory tran) public {\n        Structure.Product storage p =\n            productHistory[_uid].history[\n                productHistory[_uid].history.length - 1\n            ];\n        p.transaction = tran;\n    }\n}\n",
  "sourcePath": "P:\\Projects\\supply-chain-dapp\\supply-chain-dapp-master\\contracts\\SupplyChain.sol",
  "compiler": {
    "name": "solc",
    "version": "0.5.16+commit.9c3226ce.Emscripten.clang"
  },
  "schemaVersion": "3.4.4",
  "updatedAt": "2022-04-04T08:50:48.540Z",
  "networkType": "ethereum",
  "devdoc": {
    "methods": {
      "fetchProductPart1(uint256,string,uint256)": {
        "details": "Fetch product"
      },
      "fetchProductPart2(uint256,string,uint256)": {
        "details": "Fetch product"
      },
      "manufactureProduct(string,string,string,string,string,uint256,uint256,string)": {
        "details": "STEP 1 : Manufactured a product."
      },
      "purchaseByCustomer(uint256)": {
        "details": "STEP 5 : Purchase of a product at third party by Customer."
      },
      "purchaseByThirdParty(uint256)": {
        "details": "STEP 2 : Purchase of manufactured product by Third Party."
      },
      "receiveByCustomer(uint256)": {
        "details": "STEP 10 : Shipping of product by delivery hub purchased by customer."
      },
      "receiveByDeliveryHub(uint256,string,string)": {
        "details": "STEP 8 : Receiveing of product by delivery hub purchased by customer."
      },
      "receiveByThirdParty(uint256,string,string)": {
        "details": "STEP 4 : Received the purchased product shipped by Manufacturer."
      },
      "shipByDeliveryHub(uint256)": {
        "details": "STEP 9 : Shipping of product by delivery hub purchased by customer."
      },
      "shipByThirdParty(uint256)": {
        "details": "STEP 7 : Shipping of product by third party purchased by customer."
      },
      "shipToThirdParty(uint256)": {
        "details": "STEP 3 : Shipping of purchased product to Third Party."
      }
    }
  },
  "userdoc": {
    "methods": {}
  }
}